{
  "_format": "hh-sol-artifact-1",
  "contractName": "Promote",
  "sourceName": "contracts/SOFIPromote.sol",
  "abi": [
    {
      "inputs": [
        {
          "internalType": "address",
          "name": "_sofi",
          "type": "address"
        }
      ],
      "stateMutability": "nonpayable",
      "type": "constructor"
    },
    {
      "anonymous": false,
      "inputs": [
        {
          "indexed": true,
          "internalType": "address",
          "name": "previousOwner",
          "type": "address"
        },
        {
          "indexed": true,
          "internalType": "address",
          "name": "newOwner",
          "type": "address"
        }
      ],
      "name": "OwnershipTransferred",
      "type": "event"
    },
    {
      "anonymous": false,
      "inputs": [
        {
          "indexed": true,
          "internalType": "address",
          "name": "_address",
          "type": "address"
        },
        {
          "indexed": true,
          "internalType": "address",
          "name": "_portfolio",
          "type": "address"
        },
        {
          "indexed": false,
          "internalType": "uint256",
          "name": "_amount",
          "type": "uint256"
        }
      ],
      "name": "PromoteInfo",
      "type": "event"
    },
    {
      "inputs": [],
      "name": "owner",
      "outputs": [
        {
          "internalType": "address",
          "name": "",
          "type": "address"
        }
      ],
      "stateMutability": "view",
      "type": "function"
    },
    {
      "inputs": [
        {
          "internalType": "address",
          "name": "_portfolio",
          "type": "address"
        },
        {
          "internalType": "uint256",
          "name": "_amount",
          "type": "uint256"
        }
      ],
      "name": "promote",
      "outputs": [],
      "stateMutability": "nonpayable",
      "type": "function"
    },
    {
      "inputs": [],
      "name": "renounceOwnership",
      "outputs": [],
      "stateMutability": "nonpayable",
      "type": "function"
    },
    {
      "inputs": [],
      "name": "sofi",
      "outputs": [
        {
          "internalType": "contract ERC20",
          "name": "",
          "type": "address"
        }
      ],
      "stateMutability": "view",
      "type": "function"
    },
    {
      "inputs": [
        {
          "internalType": "address",
          "name": "newOwner",
          "type": "address"
        }
      ],
      "name": "transferOwnership",
      "outputs": [],
      "stateMutability": "nonpayable",
      "type": "function"
    },
    {
      "inputs": [
        {
          "internalType": "address",
          "name": "_address",
          "type": "address"
        }
      ],
      "name": "withdraw",
      "outputs": [],
      "stateMutability": "nonpayable",
      "type": "function"
    }
  ],
  "bytecode": "0x608060405234801561001057600080fd5b506040516107503803806107508339818101604052602081101561003357600080fd5b505160006100486001600160e01b036100b716565b600080546001600160a01b0319166001600160a01b0383169081178255604051929350917f8be0079c531659141344cd1fd0a4f28419497f9722a3daafe3b4186f6b6457e0908290a350600180546001600160a01b0319166001600160a01b03929092169190911790556100bb565b3390565b610686806100ca6000396000f3fe608060405234801561001057600080fd5b50600436106100625760003560e01c8063154b9bbc1461006757806351cff8d91461008b578063715018a6146100b35780638da5cb5b146100bb578063c67fa1ea146100c3578063f2fde38b146100ef575b600080fd5b61006f610115565b604080516001600160a01b039092168252519081900360200190f35b6100b1600480360360208110156100a157600080fd5b50356001600160a01b0316610124565b005b6100b16102de565b61006f61039c565b6100b1600480360360408110156100d957600080fd5b506001600160a01b0381351690602001356103ab565b6100b16004803603602081101561010557600080fd5b50356001600160a01b0316610512565b6001546001600160a01b031681565b61012c610626565b6001600160a01b031661013d61039c565b6001600160a01b031614610198576040805162461bcd60e51b815260206004820181905260248201527f4f776e61626c653a2063616c6c6572206973206e6f7420746865206f776e6572604482015290519081900360640190fd5b600154604080516370a0823160e01b815230600482015290516001600160a01b039092169163a9059cbb91849184916370a08231916024808301926020929190829003018186803b1580156101ec57600080fd5b505afa158015610200573d6000803e3d6000fd5b505050506040513d602081101561021657600080fd5b5051604080516001600160e01b031960e086901b1681526001600160a01b03909316600484015260248301919091525160448083019260209291908290030181600087803b15801561026757600080fd5b505af115801561027b573d6000803e3d6000fd5b505050506040513d602081101561029157600080fd5b50516102db576040805162461bcd60e51b815260206004820152601460248201527314d3d19248151c985b9cd9995c8811985a5b195960621b604482015290519081900360640190fd5b50565b6102e6610626565b6001600160a01b03166102f761039c565b6001600160a01b031614610352576040805162461bcd60e51b815260206004820181905260248201527f4f776e61626c653a2063616c6c6572206973206e6f7420746865206f776e6572604482015290519081900360640190fd5b600080546040516001600160a01b03909116907f8be0079c531659141344cd1fd0a4f28419497f9722a3daafe3b4186f6b6457e0908390a3600080546001600160a01b0319169055565b6000546001600160a01b031690565b60008111610400576040805162461bcd60e51b815260206004820152601960248201527f416d6f756e742068617320746f20626520706f73697469766500000000000000604482015290519081900360640190fd5b600154604080516323b872dd60e01b81523360048201523060248201526044810184905290516001600160a01b03909216916323b872dd916064808201926020929091908290030181600087803b15801561045a57600080fd5b505af115801561046e573d6000803e3d6000fd5b505050506040513d602081101561048457600080fd5b50516104ce576040805162461bcd60e51b815260206004820152601460248201527314d3d19248151c985b9cd9995c8811985a5b195960621b604482015290519081900360640190fd5b6040805182815290516001600160a01b0384169133917f9735b88d7365c85c0ec31311e3c458efdd9e1238530f1b2cc45ef7f5f3478cb09181900360200190a35050565b61051a610626565b6001600160a01b031661052b61039c565b6001600160a01b031614610586576040805162461bcd60e51b815260206004820181905260248201527f4f776e61626c653a2063616c6c6572206973206e6f7420746865206f776e6572604482015290519081900360640190fd5b6001600160a01b0381166105cb5760405162461bcd60e51b815260040180806020018281038252602681526020018061062b6026913960400191505060405180910390fd5b600080546040516001600160a01b03808516939216917f8be0079c531659141344cd1fd0a4f28419497f9722a3daafe3b4186f6b6457e091a3600080546001600160a01b0319166001600160a01b0392909216919091179055565b339056fe4f776e61626c653a206e6577206f776e657220697320746865207a65726f2061646472657373a2646970667358221220a8c353ad33bf17c72d088928e90f3eb57fb4839fd9a806977e7b60f80599236564736f6c634300060a0033",
  "linkReferences": {},
  "deployedLinkReferences": {}
}