{
  "_format": "hh-sol-artifact-1",
  "contractName": "ManagerModule",
  "sourceName": "contracts/ManagerModule.sol",
  "abi": [
    {
      "inputs": [
        {
          "internalType": "contract IController",
          "name": "_controller",
          "type": "address"
        }
      ],
      "stateMutability": "nonpayable",
      "type": "constructor"
    },
    {
      "anonymous": false,
      "inputs": [
        {
          "indexed": true,
          "internalType": "contract IPortfolio",
          "name": "_portfolio",
          "type": "address"
        },
        {
          "indexed": true,
          "internalType": "address",
          "name": "_sendToken",
          "type": "address"
        },
        {
          "indexed": true,
          "internalType": "address",
          "name": "_receiveToken",
          "type": "address"
        },
        {
          "indexed": false,
          "internalType": "contract ISOFIProxyAdapter",
          "name": "_exchangeAdapter",
          "type": "address"
        },
        {
          "indexed": false,
          "internalType": "uint256",
          "name": "_totalSendAmount",
          "type": "uint256"
        },
        {
          "indexed": false,
          "internalType": "uint256",
          "name": "_totalReceiveAmount",
          "type": "uint256"
        }
      ],
      "name": "ComponentExchanged",
      "type": "event"
    },
    {
      "inputs": [],
      "name": "controller",
      "outputs": [
        {
          "internalType": "contract IController",
          "name": "",
          "type": "address"
        }
      ],
      "stateMutability": "view",
      "type": "function"
    },
    {
      "inputs": [
        {
          "internalType": "contract IPortfolio",
          "name": "_portfolio",
          "type": "address"
        }
      ],
      "name": "initialize",
      "outputs": [],
      "stateMutability": "nonpayable",
      "type": "function"
    },
    {
      "inputs": [],
      "name": "removeModule",
      "outputs": [],
      "stateMutability": "nonpayable",
      "type": "function"
    },
    {
      "inputs": [
        {
          "internalType": "address",
          "name": "_portfolioFactory",
          "type": "address"
        },
        {
          "internalType": "contract IPortfolio",
          "name": "_portfolio",
          "type": "address"
        },
        {
          "internalType": "string",
          "name": "_exchangeName",
          "type": "string"
        },
        {
          "internalType": "address",
          "name": "_router",
          "type": "address"
        },
        {
          "internalType": "address",
          "name": "_sendToken",
          "type": "address"
        },
        {
          "internalType": "uint256",
          "name": "_sendQuantity",
          "type": "uint256"
        },
        {
          "internalType": "address",
          "name": "_receiveToken",
          "type": "address"
        },
        {
          "internalType": "uint256",
          "name": "_minReceiveQuantity",
          "type": "uint256"
        },
        {
          "internalType": "bytes",
          "name": "_data",
          "type": "bytes"
        }
      ],
      "name": "trade",
      "outputs": [],
      "stateMutability": "nonpayable",
      "type": "function"
    }
  ],
  "bytecode": "0x608060405234801561001057600080fd5b50604051611ca6380380611ca683398101604081905261002f91610058565b600080546001600160a01b0319166001600160a01b039290921691909117905560018055610086565b600060208284031215610069578081fd5b81516001600160a01b038116811461007f578182fd5b9392505050565b611c11806100956000396000f3fe608060405234801561001057600080fd5b506004361061004c5760003560e01c8063847ef08d14610051578063c4d66de81461005b578063dc133dae1461006e578063f77c479114610081575b600080fd5b61005961009f565b005b6100596100693660046116c3565b6100a1565b61005961007c366004611496565b610110565b6100896102e5565b6040516100969190611723565b60405180910390f35b565b806100ab816102f4565b81336100b782826103b8565b836001600160a01b0316630ffe0f1e6040518163ffffffff1660e01b8152600401600060405180830381600087803b1580156100f257600080fd5b505af1158015610106573d6000803e3d6000fd5b5050505050505050565b6002600154141561013c5760405162461bcd60e51b815260040161013390611ad4565b60405180910390fd5b60026001558761014b816103e2565b60608a6001600160a01b031663024ece896040518163ffffffff1660e01b815260040160006040518083038186803b15801561018657600080fd5b505afa15801561019a573d6000803e3d6000fd5b505050506040513d6000823e601f3d908101601f191682016040526101c291908101906115bd565b90506000805b825181101561020b578281815181106101dd57fe5b60200260200101516001600160a01b0316876001600160a01b0316141561020357600191505b6001016101c8565b508060011461022c5760405162461bcd60e51b81526004016101339061187e565b610234611344565b6102438c8c8c8c8b8d8c61042d565b905061024f8189610629565b610259818661068c565b61026281610869565b5060008061026f83610931565b91509150886001600160a01b03168b6001600160a01b03168f6001600160a01b03167f71c90a8e22bbb06ea39d299250bcaff990254be58217e7d1479dcbf2f24aa776866020015186866040516102c8939291906117b8565b60405180910390a450506001805550505050505050505050505050565b6000546001600160a01b031681565b60005460405163642ac90760e01b81526001600160a01b039091169063642ac90790610324908490600401611723565b60206040518083038186803b15801561033c57600080fd5b505afa158015610350573d6000803e3d6000fd5b505050506040513d601f19601f820116820180604052508101906103749190611668565b6103905760405162461bcd60e51b815260040161013390611a07565b610399816109db565b6103b55760405162461bcd60e51b815260040161013390611810565b50565b6103c28282610a5a565b6103de5760405162461bcd60e51b81526004016101339061198f565b5050565b6103ec8133610a5a565b6104085760405162461bcd60e51b81526004016101339061198f565b61041181610ae8565b6103b55760405162461bcd60e51b815260040161013390611947565b610435611344565b61043d611344565b6001600160a01b038916815261045288610b9c565b6001600160a01b039081166020808401919091528882166040808501919091528883166060850152878316608085015280516318160ddd60e01b81529051928c16926318160ddd92600480840193919291829003018186803b1580156104b757600080fd5b505afa1580156104cb573d6000803e3d6000fd5b505050506040513d601f19601f820116820180604052508101906104ef91906116df565b60a082018190526105009085610bba565b60c082015260a08101516105149084610bba565b60e08201526040516370a0823160e01b81526001600160a01b038716906370a0823190610545908c90600401611723565b60206040518083038186803b15801561055d57600080fd5b505afa158015610571573d6000803e3d6000fd5b505050506040513d601f19601f8201168201806040525081019061059591906116df565b6101008201526040516370a0823160e01b81526001600160a01b038616906370a08231906105c7908c90600401611723565b60206040518083038186803b1580156105df57600080fd5b505afa1580156105f3573d6000803e3d6000fd5b505050506040513d601f19601f8201168201806040525081019061061791906116df565b61012082015298975050505050505050565b60008260c001511161064d5760405162461bcd60e51b815260040161013390611b0b565b60608201518251610670916001600160a01b03909116908363ffffffff610bcc16565b6103de5760405162461bcd60e51b815260040161013390611a4a565b610727826060015183602001516001600160a01b031663334fc2896040518163ffffffff1660e01b815260040160206040518083038186803b1580156106d157600080fd5b505afa1580156106e5573d6000803e3d6000fd5b505050506040513d601f19601f82011682018060405250810190610709919061147a565b60c085015185516001600160a01b031692919063ffffffff610c5d16565b600080606084602001516001600160a01b031663130b64c98660400151876060015188608001518960c001518a60e001518b600001516040518763ffffffff1660e01b815260040161077e96959493929190611737565b60006040518083038186803b15801561079657600080fd5b505afa1580156107aa573d6000803e3d6000fd5b505050506040513d6000823e601f3d908101601f191682016040526107d29190810190611565565b87516040516347b7819960e11b815293965091945092506001600160a01b031690638f6f03329061080b90869086908690600401611788565b600060405180830381600087803b15801561082557600080fd5b505af1158015610839573d6000803e3d6000fd5b505050506040513d6000823e601f3d908101601f191682016040526108619190810190611688565b505050505050565b60008061090583610120015184608001516001600160a01b03166370a0823186600001516040518263ffffffff1660e01b81526004016108a99190611723565b60206040518083038186803b1580156108c157600080fd5b505afa1580156108d5573d6000803e3d6000fd5b505050506040513d601f19601f820116820180604052508101906108f991906116df565b9063ffffffff610cce16565b90508260e0015181101561092b5760405162461bcd60e51b8152600401610133906117d9565b92915050565b600080600061096784606001518560a0015186610100015187600001516001600160a01b0316610cf6909392919063ffffffff16565b50509050600061099e85608001518660a0015187610120015188600001516001600160a01b0316610cf6909392919063ffffffff16565b50506101008601519091506109b9908363ffffffff610cce16565b6101208601516109d090839063ffffffff610cce16565b935093505050915091565b6040516353bae5f760e01b81526000906001600160a01b038316906353bae5f790610a0a903090600401611723565b60206040518083038186803b158015610a2257600080fd5b505afa158015610a36573d6000803e3d6000fd5b505050506040513d601f19601f8201168201806040525081019061092b9190611668565b6000816001600160a01b0316836001600160a01b031663481c6a756040518163ffffffff1660e01b815260040160206040518083038186803b158015610a9f57600080fd5b505afa158015610ab3573d6000803e3d6000fd5b505050506040513d601f19601f82011682018060405250810190610ad7919061147a565b6001600160a01b0316149392505050565b6000805460405163642ac90760e01b81526001600160a01b039091169063642ac90790610b19908590600401611723565b60206040518083038186803b158015610b3157600080fd5b505afa158015610b45573d6000803e3d6000fd5b505050506040513d601f19601f82011682018060405250810190610b699190611668565b801561092b57506040516335fc6c9f60e21b81526001600160a01b0383169063d7f1b27c90610a0a903090600401611723565b600080610ba883610e3c565b9050610bb381610e47565b9392505050565b6000610bb3838363ffffffff610f0416565b6000610bd782610f2e565b6040516366cb8d2f60e01b81526001600160a01b038616906366cb8d2f90610c03908790600401611723565b60206040518083038186803b158015610c1b57600080fd5b505afa158015610c2f573d6000803e3d6000fd5b505050506040513d601f19601f82011682018060405250810190610c5391906116df565b1215949350505050565b60608282604051602401610c7292919061176f565b60408051601f198184030181529181526020820180516001600160e01b031663095ea7b360e01b179052516347b7819960e11b81529091506001600160a01b03861690638f6f03329061080b9087906000908690600401611788565b600082821115610cf05760405162461bcd60e51b815260040161013390611847565b50900390565b600080600080866001600160a01b03166370a08231896040518263ffffffff1660e01b8152600401610d289190611723565b60206040518083038186803b158015610d4057600080fd5b505afa158015610d54573d6000803e3d6000fd5b505050506040513d601f19601f82011682018060405250810190610d7891906116df565b90506000610e00896001600160a01b03166366cb8d2f8a6040518263ffffffff1660e01b8152600401610dab9190611723565b60206040518083038186803b158015610dc357600080fd5b505afa158015610dd7573d6000803e3d6000fd5b505050506040513d601f19601f82011682018060405250810190610dfb91906116df565b610f57565b905060008215610e1d57610e1688888585610f79565b9050610e21565b5060005b610e2c8a8a83610fc8565b9199909850909650945050505050565b805160209091012090565b600080548190610e5f906001600160a01b0316611128565b6001600160a01b031663e6d642c530856040518363ffffffff1660e01b8152600401610e8c92919061176f565b60206040518083038186803b158015610ea457600080fd5b505afa158015610eb8573d6000803e3d6000fd5b505050506040513d601f19601f82011682018060405250810190610edc919061147a565b90506001600160a01b03811661092b5760405162461bcd60e51b8152600401610133906118ac565b6000610bb3670de0b6b3a7640000610f22858563ffffffff6111a716565b9063ffffffff6111e116565b6000600160ff1b8210610f535760405162461bcd60e51b815260040161013390611a8c565b5090565b600080821215610f535760405162461bcd60e51b815260040161013390611912565b600080610f9c610f8f848863ffffffff610f0416565b869063ffffffff610cce16565b9050610fbe86610fb2868463ffffffff610cce16565b9063ffffffff61121316565b9695505050505050565b6000610fd48484611231565b905080158015610fe45750600082115b1561105b57610ff384846112b8565b611056576040516304e3532760e41b81526001600160a01b03851690634e35327090611023908690600401611723565b600060405180830381600087803b15801561103d57600080fd5b505af1158015611051573d6000803e3d6000fd5b505050505b6110d8565b808015611066575081155b156110d85761107584846112b8565b6110d857604051636f86c89760e01b81526001600160a01b03851690636f86c897906110a5908690600401611723565b600060405180830381600087803b1580156110bf57600080fd5b505af11580156110d3573d6000803e3d6000fd5b505050505b836001600160a01b0316632ba57d17846110f185610f2e565b6040518363ffffffff1660e01b815260040161110e92919061176f565b600060405180830381600087803b1580156100f257600080fd5b6040516373b2e76b60e11b81526000906001600160a01b0383169063e765ced690611157908490600401611b42565b60206040518083038186803b15801561116f57600080fd5b505afa158015611183573d6000803e3d6000fd5b505050506040513d601f19601f8201168201806040525081019061092b919061147a565b6000826111b65750600061092b565b828202828482816111c357fe5b0414610bb35760405162461bcd60e51b8152600401610133906119c6565b60008082116112025760405162461bcd60e51b8152600401610133906118db565b81838161120b57fe5b049392505050565b6000610bb382610f2285670de0b6b3a764000063ffffffff6111a716565b600080836001600160a01b03166366cb8d2f846040518263ffffffff1660e01b81526004016112609190611723565b60206040518083038186803b15801561127857600080fd5b505afa15801561128c573d6000803e3d6000fd5b505050506040513d601f19601f820116820180604052508101906112b091906116df565b139392505050565b600080836001600160a01b031663a7bdad03846040518263ffffffff1660e01b81526004016112e79190611723565b60006040518083038186803b1580156112ff57600080fd5b505afa158015611313573d6000803e3d6000fd5b505050506040513d6000823e601f3d908101601f1916820160405261133b91908101906115bd565b51119392505050565b60405180610140016040528060006001600160a01b0316815260200160006001600160a01b0316815260200160006001600160a01b0316815260200160006001600160a01b0316815260200160006001600160a01b0316815260200160008152602001600081526020016000815260200160008152602001600081525090565b803561092b81611bc6565b805161092b81611bc6565b600082601f8301126113ea578081fd5b81356113fd6113f882611b72565b611b4b565b915080825283602082850101111561141457600080fd5b8060208401602084013760009082016020015292915050565b600082601f83011261143d578081fd5b815161144b6113f882611b72565b915080825283602082850101111561146257600080fd5b611473816020840160208601611b96565b5092915050565b60006020828403121561148b578081fd5b8151610bb381611bc6565b60008060008060008060008060006101208a8c0312156114b4578485fd5b89356114bf81611bc6565b985060208a01356114cf81611bc6565b975060408a013567ffffffffffffffff808211156114eb578687fd5b6114f78d838e016113da565b98506115068d60608e016113c4565b97506115158d60808e016113c4565b965060a08c0135955061152b8d60c08e016113c4565b945060e08c013593506101008c0135915080821115611548578283fd5b506115558c828d016113da565b9150509295985092959850929598565b600080600060608486031215611579578283fd5b835161158481611bc6565b60208501516040860151919450925067ffffffffffffffff8111156115a7578182fd5b6115b38682870161142d565b9150509250925092565b600060208083850312156115cf578182fd5b825167ffffffffffffffff808211156115e6578384fd5b81850186601f8201126115f7578485fd5b8051925081831115611607578485fd5b8383029150611617848301611b4b565b8381528481019082860184840187018a1015611631578788fd5b8794505b8585101561165b576116478a826113cf565b835260019490940193918601918601611635565b5098975050505050505050565b600060208284031215611679578081fd5b81518015158114610bb3578182fd5b600060208284031215611699578081fd5b815167ffffffffffffffff8111156116af578182fd5b6116bb8482850161142d565b949350505050565b6000602082840312156116d4578081fd5b8135610bb381611bc6565b6000602082840312156116f0578081fd5b5051919050565b6000815180845261170f816020860160208601611b96565b601f01601f19169290920160200192915050565b6001600160a01b0391909116815260200190565b6001600160a01b039687168152948616602086015292851660408501526060840191909152608083015290911660a082015260c00190565b6001600160a01b03929092168252602082015260400190565b600060018060a01b0385168252836020830152606060408301526117af60608301846116f7565b95945050505050565b6001600160a01b039390931683526020830191909152604082015260600190565b6020808252601d908201527f536c6970706167652067726561746572207468616e20616c6c6f776564000000604082015260600190565b6020808252601e908201527f4d7573742062652070656e64696e6720696e697469616c697a6174696f6e0000604082015260600190565b6020808252601e908201527f536166654d6174683a207375627472616374696f6e206f766572666c6f770000604082015260600190565b602080825260149082015273151bdad95b88191bd95cc81b9bdd08195e1a5cdd60621b604082015260600190565b60208082526015908201527426bab9ba103132903b30b634b21030b230b83a32b960591b604082015260600190565b6020808252601a908201527f536166654d6174683a206469766973696f6e206279207a65726f000000000000604082015260600190565b6020808252818101527f53616665436173743a2076616c7565206d75737420626520706f736974697665604082015260600190565b60208082526028908201527f4d75737420626520612076616c696420616e6420696e697469616c697a656420604082015267706f72666f6c696f60c01b606082015260800190565b6020808252601c908201527f4d7573742062652074686520706f72666f6c696f206d616e6167657200000000604082015260600190565b60208082526021908201527f536166654d6174683a206d756c7469706c69636174696f6e206f766572666c6f6040820152607760f81b606082015260800190565b60208082526023908201527f4d75737420626520636f6e74726f6c6c65722d656e61626c656420706f72666f6040820152626c696f60e81b606082015260800190565b60208082526022908201527f556e69742063616e742062652067726561746572207468616e206578697374696040820152616e6760f01b606082015260800190565b60208082526028908201527f53616665436173743a2076616c756520646f65736e27742066697420696e2061604082015267371034b73a191a9b60c11b606082015260800190565b6020808252601f908201527f5265656e7472616e637947756172643a207265656e7472616e742063616c6c00604082015260600190565b6020808252601d908201527f546f6b656e20746f2073656c6c206d757374206265206e6f6e7a65726f000000604082015260600190565b90815260200190565b60405181810167ffffffffffffffff81118282101715611b6a57600080fd5b604052919050565b600067ffffffffffffffff821115611b88578081fd5b50601f01601f191660200190565b60005b83811015611bb1578181015183820152602001611b99565b83811115611bc0576000848401525b50505050565b6001600160a01b03811681146103b557600080fdfea26469706673582212205250a6914e0971625b087f24662798a358e172b44362eebcf6a3f3f68a934e8b64736f6c634300060a0033",
  "linkReferences": {},
  "deployedLinkReferences": {}
}