{
  "_format": "hh-sol-artifact-1",
  "contractName": "ProtocolViewer",
  "sourceName": "contracts/protocol-viewers/ProtocolViewer.sol",
  "abi": [
    {
      "inputs": [],
      "stateMutability": "nonpayable",
      "type": "constructor"
    },
    {
      "inputs": [
        {
          "internalType": "address[]",
          "name": "_tokenAddresses",
          "type": "address[]"
        },
        {
          "internalType": "address[]",
          "name": "_ownerAddresses",
          "type": "address[]"
        },
        {
          "internalType": "address[]",
          "name": "_spenderAddresses",
          "type": "address[]"
        }
      ],
      "name": "batchFetchAllowances",
      "outputs": [
        {
          "internalType": "uint256[]",
          "name": "",
          "type": "uint256[]"
        }
      ],
      "stateMutability": "view",
      "type": "function"
    },
    {
      "inputs": [
        {
          "internalType": "address[]",
          "name": "_tokenAddresses",
          "type": "address[]"
        },
        {
          "internalType": "address[]",
          "name": "_ownerAddresses",
          "type": "address[]"
        }
      ],
      "name": "batchFetchBalancesOf",
      "outputs": [
        {
          "internalType": "uint256[]",
          "name": "",
          "type": "uint256[]"
        }
      ],
      "stateMutability": "view",
      "type": "function"
    },
    {
      "inputs": [
        {
          "internalType": "contract IPortfolio[]",
          "name": "_portfolios",
          "type": "address[]"
        },
        {
          "internalType": "address[]",
          "name": "_moduleList",
          "type": "address[]"
        }
      ],
      "name": "batchFetchDetails",
      "outputs": [
        {
          "components": [
            {
              "internalType": "string",
              "name": "name",
              "type": "string"
            },
            {
              "internalType": "string",
              "name": "symbol",
              "type": "string"
            },
            {
              "internalType": "address",
              "name": "manager",
              "type": "address"
            },
            {
              "internalType": "address[]",
              "name": "modules",
              "type": "address[]"
            },
            {
              "internalType": "enum IPortfolio.ModuleState[]",
              "name": "moduleStatuses",
              "type": "uint8[]"
            },
            {
              "components": [
                {
                  "internalType": "address",
                  "name": "component",
                  "type": "address"
                },
                {
                  "internalType": "address",
                  "name": "module",
                  "type": "address"
                },
                {
                  "internalType": "int256",
                  "name": "unit",
                  "type": "int256"
                },
                {
                  "internalType": "uint8",
                  "name": "positionState",
                  "type": "uint8"
                },
                {
                  "internalType": "bytes",
                  "name": "data",
                  "type": "bytes"
                }
              ],
              "internalType": "struct IPortfolio.Position[]",
              "name": "positions",
              "type": "tuple[]"
            },
            {
              "internalType": "uint256",
              "name": "totalSupply",
              "type": "uint256"
            }
          ],
          "internalType": "struct PortfolioViewer.PortfolioDetails[]",
          "name": "",
          "type": "tuple[]"
        }
      ],
      "stateMutability": "view",
      "type": "function"
    },
    {
      "inputs": [
        {
          "internalType": "contract IPortfolio[]",
          "name": "_portfolios",
          "type": "address[]"
        }
      ],
      "name": "batchFetchManagers",
      "outputs": [
        {
          "internalType": "address[]",
          "name": "",
          "type": "address[]"
        }
      ],
      "stateMutability": "view",
      "type": "function"
    },
    {
      "inputs": [
        {
          "internalType": "contract IPortfolio[]",
          "name": "_portfolios",
          "type": "address[]"
        },
        {
          "internalType": "address[]",
          "name": "_modules",
          "type": "address[]"
        }
      ],
      "name": "batchFetchModuleStates",
      "outputs": [
        {
          "internalType": "enum IPortfolio.ModuleState[][]",
          "name": "",
          "type": "uint8[][]"
        }
      ],
      "stateMutability": "view",
      "type": "function"
    },
    {
      "inputs": [
        {
          "internalType": "contract IPortfolio",
          "name": "_portfolio",
          "type": "address"
        },
        {
          "internalType": "address[]",
          "name": "_moduleList",
          "type": "address[]"
        }
      ],
      "name": "getPortfolioDetails",
      "outputs": [
        {
          "components": [
            {
              "internalType": "string",
              "name": "name",
              "type": "string"
            },
            {
              "internalType": "string",
              "name": "symbol",
              "type": "string"
            },
            {
              "internalType": "address",
              "name": "manager",
              "type": "address"
            },
            {
              "internalType": "address[]",
              "name": "modules",
              "type": "address[]"
            },
            {
              "internalType": "enum IPortfolio.ModuleState[]",
              "name": "moduleStatuses",
              "type": "uint8[]"
            },
            {
              "components": [
                {
                  "internalType": "address",
                  "name": "component",
                  "type": "address"
                },
                {
                  "internalType": "address",
                  "name": "module",
                  "type": "address"
                },
                {
                  "internalType": "int256",
                  "name": "unit",
                  "type": "int256"
                },
                {
                  "internalType": "uint8",
                  "name": "positionState",
                  "type": "uint8"
                },
                {
                  "internalType": "bytes",
                  "name": "data",
                  "type": "bytes"
                }
              ],
              "internalType": "struct IPortfolio.Position[]",
              "name": "positions",
              "type": "tuple[]"
            },
            {
              "internalType": "uint256",
              "name": "totalSupply",
              "type": "uint256"
            }
          ],
          "internalType": "struct PortfolioViewer.PortfolioDetails",
          "name": "",
          "type": "tuple"
        }
      ],
      "stateMutability": "view",
      "type": "function"
    }
  ],
  "bytecode": "0x608060405234801561001057600080fd5b50611437806100206000396000f3fe608060405234801561001057600080fd5b50600436106100625760003560e01c80631453a29914610067578063312c61131461009057806333d23f3f146100b057806381316c84146100d0578063b0e96cb7146100e3578063e7aed7ab14610103575b600080fd5b61007a610075366004610e11565b610123565b6040516100879190611257565b60405180910390f35b6100a361009e366004610c79565b61022d565b604051610087919061131d565b6100c36100be366004610e4b565b610365565b60405161008791906112ca565b6100a36100de366004610ce1565b610718565b6100f66100f1366004610fb0565b610874565b6040516100879190611361565b610116610111366004610e4b565b6108f5565b604051610087919061126a565b60608082516001600160401b038111801561013d57600080fd5b50604051908082528060200260200182016040528015610167578160200160208202803683370190505b50905060005b83518110156102265783818151811061018257fe5b60200260200101516001600160a01b031663481c6a756040518163ffffffff1660e01b815260040160206040518083038186803b1580156101c257600080fd5b505afa1580156101d6573d6000803e3d6000fd5b505050506040513d601f19601f820116820180604052508101906101fa9190610c5d565b82828151811061020657fe5b6001600160a01b039092166020928302919091019091015260010161016d565b5092915050565b60608381816001600160401b038111801561024757600080fd5b50604051908082528060200260200182016040528015610271578160200160208202803683370190505b50905060005b8281101561035a5787878281811061028b57fe5b90506020020160208101906102a09190610c3a565b6001600160a01b03166370a082318787848181106102ba57fe5b90506020020160208101906102cf9190610c3a565b6040518263ffffffff1660e01b81526004016102eb9190611229565b60206040518083038186803b15801561030357600080fd5b505afa158015610317573d6000803e3d6000fd5b505050506040513d601f19601f8201168201806040525081019061033b9190611046565b82828151811061034757fe5b6020908102919091010152600101610277565b509695505050505050565b6060806103738585856108f5565b9050606085516001600160401b038111801561038e57600080fd5b506040519080825280602002602001820160405280156103c857816020015b6103b5610ab3565b8152602001906001900390816103ad5790505b50905060005b865181101561070e5760008782815181106103e557fe5b602002602001015190506040518060e00160405280826001600160a01b03166306fdde036040518163ffffffff1660e01b815260040160006040518083038186803b15801561043357600080fd5b505afa158015610447573d6000803e3d6000fd5b505050506040513d6000823e601f3d908101601f1916820160405261046f9190810190611014565b8152602001826001600160a01b03166395d89b416040518163ffffffff1660e01b815260040160006040518083038186803b1580156104ad57600080fd5b505afa1580156104c1573d6000803e3d6000fd5b505050506040513d6000823e601f3d908101601f191682016040526104e99190810190611014565b8152602001826001600160a01b031663481c6a756040518163ffffffff1660e01b815260040160206040518083038186803b15801561052757600080fd5b505afa15801561053b573d6000803e3d6000fd5b505050506040513d601f19601f8201168201806040525081019061055f9190610c5d565b6001600160a01b03168152602001826001600160a01b031663b2494df36040518163ffffffff1660e01b815260040160006040518083038186803b1580156105a657600080fd5b505afa1580156105ba573d6000803e3d6000fd5b505050506040513d6000823e601f3d908101601f191682016040526105e29190810190610d76565b81526020018584815181106105f357fe5b60200260200101518152602001826001600160a01b031663802758606040518163ffffffff1660e01b815260040160006040518083038186803b15801561063957600080fd5b505afa15801561064d573d6000803e3d6000fd5b505050506040513d6000823e601f3d908101601f191682016040526106759190810190610eb0565b8152602001826001600160a01b03166318160ddd6040518163ffffffff1660e01b815260040160206040518083038186803b1580156106b357600080fd5b505afa1580156106c7573d6000803e3d6000fd5b505050506040513d601f19601f820116820180604052508101906106eb9190611046565b8152508383815181106106fa57fe5b6020908102919091010152506001016103ce565b5095945050505050565b60608581816001600160401b038111801561073257600080fd5b5060405190808252806020026020018201604052801561075c578160200160208202803683370190505b50905060005b828110156108675789898281811061077657fe5b905060200201602081019061078b9190610c3a565b6001600160a01b031663dd62ed3e8989848181106107a557fe5b90506020020160208101906107ba9190610c3a565b8888858181106107c657fe5b90506020020160208101906107db9190610c3a565b6040518363ffffffff1660e01b81526004016107f892919061123d565b60206040518083038186803b15801561081057600080fd5b505afa158015610824573d6000803e3d6000fd5b505050506040513d601f19601f820116820180604052508101906108489190611046565b82828151811061085457fe5b6020908102919091010152600101610762565b5098975050505050505050565b61087c610ab3565b6040805160018082528183019092526060916020808301908036833701905050905084816000815181106108ac57fe5b60200260200101906001600160a01b031690816001600160a01b0316815250506108d7818585610365565b6000815181106108e357fe5b60200260200101519150509392505050565b60608084516001600160401b038111801561090f57600080fd5b5060405190808252806020026020018201604052801561094357816020015b606081526020019060019003908161092e5790505b50905060005b8551811015610aaa576060846001600160401b038111801561096a57600080fd5b50604051908082528060200260200182016040528015610994578160200160208202803683370190505b50905060005b85811015610a88578783815181106109ae57fe5b60200260200101516001600160a01b03166335bc4e528888848181106109d057fe5b90506020020160208101906109e59190610c3a565b6040518263ffffffff1660e01b8152600401610a019190611229565b60206040518083038186803b158015610a1957600080fd5b505afa158015610a2d573d6000803e3d6000fd5b505050506040513d601f19601f82011682018060405250810190610a519190610ff5565b828281518110610a5d57fe5b60200260200101906002811115610a7057fe5b90816002811115610a7d57fe5b90525060010161099a565b5080838381518110610a9657fe5b602090810291909101015250600101610949565b50949350505050565b6040518060e00160405280606081526020016060815260200160006001600160a01b03168152602001606081526020016060815260200160608152602001600081525090565b8051610b04816113e9565b92915050565b60008083601f840112610b1b578182fd5b5081356001600160401b03811115610b31578182fd5b6020830191508360208083028501011115610b4b57600080fd5b9250929050565b600082601f830112610b62578081fd5b8135610b75610b708261139a565b611374565b818152915060208083019084810181840286018201871015610b9657600080fd5b60005b84811015610bbe578135610bac816113e9565b84529282019290820190600101610b99565b505050505092915050565b600082601f830112610bd9578081fd5b81516001600160401b03811115610bee578182fd5b610c01601f8201601f1916602001611374565b9150808252836020828501011115610c1857600080fd5b6102268160208401602086016113b9565b805160ff81168114610b0457600080fd5b600060208284031215610c4b578081fd5b8135610c56816113e9565b9392505050565b600060208284031215610c6e578081fd5b8151610c56816113e9565b60008060008060408587031215610c8e578283fd5b84356001600160401b0380821115610ca4578485fd5b610cb088838901610b0a565b90965094506020870135915080821115610cc8578384fd5b50610cd587828801610b0a565b95989497509550505050565b60008060008060008060608789031215610cf9578182fd5b86356001600160401b0380821115610d0f578384fd5b610d1b8a838b01610b0a565b90985096506020890135915080821115610d33578384fd5b610d3f8a838b01610b0a565b90965094506040890135915080821115610d57578384fd5b50610d6489828a01610b0a565b979a9699509497509295939492505050565b60006020808385031215610d88578182fd5b82516001600160401b03811115610d9d578283fd5b80840185601f820112610dae578384fd5b80519150610dbe610b708361139a565b8281528381019082850185850284018601891015610dda578687fd5b8693505b84841015610e05578051610df1816113e9565b835260019390930192918501918501610dde565b50979650505050505050565b600060208284031215610e22578081fd5b81356001600160401b03811115610e37578182fd5b610e4384828501610b52565b949350505050565b600080600060408486031215610e5f578283fd5b83356001600160401b0380821115610e75578485fd5b610e8187838801610b52565b94506020860135915080821115610e96578384fd5b50610ea386828701610b0a565b9497909650939450505050565b60006020808385031215610ec2578182fd5b82516001600160401b0380821115610ed8578384fd5b81850186601f820112610ee9578485fd5b80519250610ef9610b708461139a565b83815284810190828601875b86811015610fa1578151850160a080601f19838f03011215610f25578a8bfd5b610f2e81611374565b610f3a8e8c8501610af9565b8152610f498e60408501610af9565b8b82015260608301516040820152610f648e60808501610c29565b60608201528183015189811115610f79578c8dfd5b610f878f8d83870101610bc9565b608083015250865250509287019290870190600101610f05565b50909998505050505050505050565b600080600060408486031215610fc4578081fd5b8335610fcf816113e9565b925060208401356001600160401b03811115610fe9578182fd5b610ea386828701610b0a565b600060208284031215611006578081fd5b815160038110610c56578182fd5b600060208284031215611025578081fd5b81516001600160401b0381111561103a578182fd5b610e4384828501610bc9565b600060208284031215611057578081fd5b5051919050565b6000815180845260208085019450808401835b838110156110965781516001600160a01b031687529582019590820190600101611071565b509495945050505050565b6000815180845260208085019450808401835b83811015611096578151600381106110c857fe5b875295820195908201906001016110b4565b600081518084526110f28160208601602086016113b9565b601f01601f19169290920160200192915050565b6000815160e0845261111b60e08501826110da565b60209150818401518582038387015261113482826110da565b6040868101516001600160a01b03908116898301526060808901518a8503828c0152929550935090611166838261105e565b60809350838901519150898103848b015261118181836110a1565b60a08a8101518c83038d83015280518084529194508a935089830191908a820284018b01908b015b8286101561120a57601f198583030184528051888151168352888d820151168d8401528b8101518c84015260ff8b820151168b84015289810151888b8501526111f4898501826110da565b60019890980197958e0195935050508b016111a9565b5060c08d015160c08f0152809b50505050505050505050505092915050565b6001600160a01b0391909116815260200190565b6001600160a01b0392831681529116602082015260400190565b600060208252610c56602083018461105e565b6000602080830181845280855180835260408601915060408482028701019250838701855b828110156112bd57603f198886030184526112ab8583516110a1565b9450928501929085019060010161128f565b5092979650505050505050565b6000602080830181845280855180835260408601915060408482028701019250838701855b828110156112bd57603f1988860301845261130b858351611106565b945092850192908501906001016112ef565b6020808252825182820181905260009190848201906040850190845b8181101561135557835183529284019291840191600101611339565b50909695505050505050565b600060208252610c566020830184611106565b6040518181016001600160401b038111828210171561139257600080fd5b604052919050565b60006001600160401b038211156113af578081fd5b5060209081020190565b60005b838110156113d45781810151838201526020016113bc565b838111156113e3576000848401525b50505050565b6001600160a01b03811681146113fe57600080fd5b5056fea264697066735822122036e95dbbe8cb66ed1f3f4d747365d3ffd32c8e5d634b1ef4bdf1c5fc66ece2c264736f6c634300060a0033",
  "linkReferences": {},
  "deployedLinkReferences": {}
}